:020000040800F2
:10000000D0060020010100085D1E0008E11C000868
:10001000E11D0008EB050008912300080000000026
:10002000000000000000000000000000792000082F
:100030007908000800000000091F00087B20000864
:100040001B0100081B0100081B0100081B01000820
:100050001B0100081B0100081B0100081B01000810
:100060001B0100081B0100081B0100081B01000800
:100070001B0100081B0100081B0100081B010008F0
:100080001B0100081B0100081B0100081B010008E0
:1000900085230008ED0500081B0100081B0100086E
:1000A0001B0100081B0100081B0100081B010008C0
:1000B0001B0100081B0100081B0100081B010008B0
:1000C0001B0100081B0100081B0100081B010008A0
:1000D0001B010008792300081B0100081B01000810
:1000E0001B0100081B0100081B010008DFF80CD0F1
:1000F00000F05AFA0048004781240008D00600208A
:100100000648804706480047FEE7FEE7FEE7FEE7B1
:10011000FEE7FEE7FEE7FEE7FEE7FEE7DD2000087C
:10012000ED000008202A04DB203A21FA02F0002129
:10013000704721FA02F3D040C2F1200291400843F7
:1001400019467047D2B201E000F8012B491EFBD2DC
:1001500070470022F6E710B513460A4604461946D2
:10016000FFF7F0FF204610BDF0B480EA0102D40F83
:100170004200B2EB410F02D20246084611464A0045
:1001800042D0C30DDDB2C1F3C752AD1A202D35DA0E
:10019000C1F3160141F4000204B15242C5F1200638
:1001A00002FA06F12A411044B3EBD05F23D0C4B168
:1001B000012DA0EBC35009DCF0BC4FF0004202EA75
:1001C000C352DBB200F5000000F063B9400000F15B
:1001D000807000EBC350A0F1807040EAD1704900FC
:1001E00009E0490841EAC071A0EBC35000F50000E6
:1001F000400800EBC350F0BC00F042B9614201225C
:1002000002EB4101001BF6E7F0BC704781F00041B2
:10021000AAE780F00040A7E780EA010210B502F0EB
:100220000043400022D04A001FD0010E01EB1261B2
:10023000C0F35600C2F3560240F4000042F400023C
:10024000A0FB022000047F39140400D0401C50EAB7
:10025000124001D44000491EC2B20C0604EBD0107B
:10026000401C4008802A02D003E0002010BD20F08E
:100270000100002900DA0020184310BD30B480EAE4
:10028000010202F0004530F0004221F0004013D09E
:1002900090B1C30DD40DC2F31601C0F31600E41AD9
:1002A00041F4000140F400027D34914201D3641C0A
:1002B00000E04900002C02DA30BC002070474FF407
:1002C00000000023914201D3891A034340084FEAFA
:1002D0004101F7D151B1914202D14FF0004105E007
:1002E00002D24FF0010101E06FF0010103EBC450B5
:1002F000284430BC00F0C4B82DE9FE4F81EA030465
:1003000004F0004421F0004100944FF0000B23F072
:10031000004350EA01045ED052EA03045BD0C3F309
:100320000A54C1F30A552C44A4F2F3340194A0FBFF
:100330000254C1F3130141F48011C3F3130343F4D6
:10034000801301FB024400FB034E840A970A44EA2F
:10035000815447EA8357A4FB076802958D0A05FB81
:1003600007854FEA932C04FB0C542705029D4FEAA6
:10037000065847EA1637B5EB08056EEB070C870EF3
:10038000920E47EA811742EA8312A7FB0201B6EBFD
:100390000B0164EB00042B0D43EA0C335E1844EBB5
:1003A0001C50DA465146E7FB0201C5F313044FEA3D
:1003B0000B3343EA14534FEA0432019C43EA060329
:1003C000A4F10C040294009CCDE900B400F09EF866
:1003D00003B0BDE8F08F00200146F9E7C10F80EAC5
:1003E000E0700844CA079623002100F052B80EB509
:1003F000C10F80EAE0700844CA07002140F233438D
:100400008DE80E000A460B4600F080F803B000BDF0
:1004100000F0004220F00040C10DC0F3160040F48F
:1004200000007F2901DA00207047962903DCC1F122
:100430009601C84001E096398840002AF4D0404235
:10044000704770B5C1F30A5201F000450024C1F3B2
:10045000130140F2FF3341F480119A4201DA002087
:1004600070BD40F233439A42A2F2334203DC52425F
:10047000FFF758FE00E090402C43F1D0404270BDA1
:100480000029A8BF7047401C490008BF20F00100A8
:10049000704710B4B0FA80FC00FA0CF050EA010486
:1004A00004BF10BC704749B1CCF1200421FA04F418
:1004B00011FA0CF118BF012121430843A3EB0C01F1
:1004C000CB1D4FEA00614FEA102042BF002010BC54
:1004D000704700EBC35010440029A4BF10BC704704
:1004E000401C490008BF20F0010010BC704710B547
:1004F000141E73F1000408DA401C41F10001921847
:100500005B411A4301D120F0010010BD2DE9F04DEF
:1005100092469B4611B1B1FA81F202E0B0FA80F244
:100520002032904600F052F804460F4640EA0A0096
:1005300041EA0B0153465A46084313D0114653EA89
:10054000010019D0C8F140025046FFF7EBFD054607
:100550000E4650465946424600F038F8084305D04A
:10056000012004E020463946BDE8F08D0020054317
:1005700046EAE0762C4337430A986305E40AA0EB89
:1005800008000022FD0A44EA47540A3002D5002040
:100590000146E9E7010510196941DDE9084500193F
:1005A0006941BDE8F04DA2E7064C074D06E0E06862
:1005B00040F0010394E8070098471034AC42F6D3AA
:1005C000FFF798FDFC2400081C250008202A04DB06
:1005D000203A00FA02F1002070479140C2F1200356
:1005E00020FA03F3194390407047FEE7014800F0FA
:1005F000A9BA00004000002070B50A49A1F5D870E2
:10060000044601F083FC07492831A1F580700546B6
:1006100001F07CFC204601F022FC2846BDE8704039
:1006200001F01DBC7802002010B5044801F017FC51
:100630000248BDE81040D83001F011BCC8000020CD
:100640002DE9F047D0F88C100446C0F888104848CF
:10065000028855BAC4F88C50428850BA52BAC4F8CD
:100660009C20C4F8B800D4F89870C4F89470B0F521
:10067000004F03DDA0F58030C4F8B800691AB4F962
:10068000A800B1F5805F01DD401E03E011F5805F39
:1006900002DA401CA4F8A800B4F9A86084343046FB
:1006A000FFF79CFE3349FFF7B7FD3349FFF7E6FD3F
:1006B0002060E16805EB4630401A06466061FFF7AE
:1006C0008DFE2E49FFF7A8FD2D49FFF7A5FD2D4D05
:1006D000E061843CA968B1F5FA6F01DC491CA960AE
:1006E000B1F57A7F00DCE860E968FFF78FFDDFF89D
:1006F0009890DFF89880686102E04946FFF786FD30
:100700004045FADCDFF88880686102E04946FFF77F
:100710002BFD4045FAD86861C4F8A40094F9800024
:10072000F11B04EB8002401C84F88000916094F877
:1007300080001E2801D0A86915E00020286184F8F7
:100740008000014604EB8102491C92681C29104478
:10075000F8DB2861FFF74BFE0E4A0F4BFFF7CCFD8D
:10076000FFF76FFEA861FFF739FE6060BDE8F08714
:100770001C00002000003B4300706045E63F9C3FAA
:100780006F12833A240000200000344300003643F7
:10079000000036C33481221631ECB43F0C49A0F579
:1007A000007001380BD0012811D151F8E02F501CF6
:1007B00008600748E030322A07DA01F057BE8A683D
:1007C000501C886002480830F5E7FFF739BF7047D2
:1007D000C000002010B58AB0002101220446CDE9F6
:1007E0000612039104910E20CDE908200591009195
:1007F000019102916946204600F0B8F808B100F076
:100800003CF8204600F09AFB08B100F036F80221CF
:10081000204600F034F808B100F02FF80AB00020AC
:1008200010BD000010B58AB0082304939B0100930B
:10083000002302930393069307930B0A8DF8183055
:100840008DF81910110A0B4C8DF81A108DF81B2019
:10085000616808AB491C616006AA694600F021F88E
:10086000002804D02068401C206000F006F80AB080
:1008700010BD000024000020704772B6FEE790F81B
:100880002020012A07D0022A05D0416A41F48021A4
:10089000416201207047006842690A4342610020BA
:1008A0007047F0B590F820500468A468012D05D079
:1008B000022D03D0416A41F4802153E014F0406FCF
:1008C00001D1E5004BD5C4F30164022C03D9416A80
:1008D00041F4000146E00125A5401D608D684FF4FC
:1008E000C0739DB1CE6835434E6845EAC6050668BB
:1008F00003EB0417F5514FF4C275076805EB0415B7
:100900000E697E51097D012905D009E00E88CD6868
:1009100045EA4655EBE701684E5946F480764E515C
:100920001179D2F805504FF4C67641EA05250168E1
:1009300006EB04168D511178D2F801204FF4C475DE
:1009400041EA0221026805EB04155151006803EBEE
:100950000411425842F0010242500020F0BD416AA9
:1009600041F4001141620120F0BD000010B590F883
:1009700020300268012B07D0022B05D0416A41F4D8
:1009800080214162012010BDD2F8000240F0010038
:10099000C2F80002087D00F01F0301209840D2F841
:1009A0001C328343C2F81C32CB69B3B9D2F80C3283
:1009B0008343C2F80C328C894B6864F31F434C6943
:1009C00002EBC404C4F840320C890B6864F31F4383
:1009D0004C6902EBC404C4F84432CB69012B16D134
:1009E000D2F80C320343C2F80C320C884B6864F323
:1009F0001F434C6902EBC404C4F840320C89CB6835
:100A000064F31F434C6902EBC404C4F844328B699D
:100A1000002BD2F804320FD053EA0003C2F804329C
:100A20000B69002BD2F8143208D00343C2F81432F9
:100A3000096A012904D008E08343EFE78343F5E71F
:100A4000D2F81C120143C2F81C12D2F8000220F0A6
:100A50000100C2F80002002010BD704730B590F8C8
:100A60002040012C05D0022C03D0416A41F48021A2
:100A70005DE00468002955D02469A40754D04FF4E0
:100A8000D874056804EB01142D5915F00405956020
:100A900005682D594ED0ED08556005682C5904F0B5
:100AA0000204D4604FF4DA74056804EB01142D5984
:100AB00005F00F05156105682D59C5F307259561EA
:100AC00005682C59240C54614FF4DC72046802EB65
:100AD0000112A4581C700468A458240A5C700468AD
:100AE000A458240C9C700468A258120EDA704FF4BB
:100AF000DE72046802EB0112A4581C710468A45849
:100B0000240A5C710468A458240C9C710468A258DF
:100B1000120EDA71006881B1016941F020010161B2
:100B2000002030BDE468A8E7416A41F40011416249
:100B3000012030BD6D0D1560AFE7C16841F02001A7
:100B4000C160EDE72DE9F05F0546006800244669C5
:100B5000D0F804908768D0F80CB0D0F810A0D0F886
:100B60001880F10748D0F90714D001218160B80737
:100B700003D5284600F00FFA0CE0780702D54FF4B1
:100B8000006407E0380702D54FF4805402E028469D
:100B900000F000FAF80516D529684FF480708860D7
:100BA000B80503D5284600F0F8F90CE0780502D521
:100BB00044F4005407E0380502D544F4804402E0D0
:100BC000284600F0E9F9F80316D529684FF480307B
:100BD0008860B80303D5284600F0E1F90CE07803FB
:100BE00002D544F4004407E0380302D544F48034CD
:100BF00002E0284600F0D2F9300707D55FEACB6063
:100C000004D52968102044F40074C86070074FF0C0
:100C1000080707D55FEA0B7004D52868C760284627
:100C200000F06EF9B00706D52868C068800702D0CA
:100C3000284600F067F9700607D55FEACA6004D558
:100C40002968102044F480640861B00607D55FEA83
:100C50000A7004D528680761284600F06BF9F00691
:100C600006D528680069800702D0284600F063F99D
:100C7000B00308D55FEAC96005D52968102048602F
:100C8000284600F059F9F00307D55FEA097004D54A
:100C900028684760284600F083F9300446D55FEAAB
:100CA000497040D5F00504D55FEAC87001D044F022
:100CB0000104B00504D55FEA887001D544F0020450
:100CC000700504D55FEA487001D544F0040430058E
:100CD00029D518F0700F26D008F07000402815D0E4
:100CE00006DC102809D020280AD0302816D10AE0C6
:100CF00050280ED0602811D10EE044F008040DE019
:100D000044F010040AE044F0200407E044F04004FA
:100D100004E044F0800401E044F4807428688169B0
:100D200021F070018161296804204860002C05D001
:100D3000686A204368622846FFF78FFEBDE8F09F8F
:100D400070B5040003D094F8200010B104E0012035
:100D500070BD204600F082F82068016841F0010172
:100D6000016000F095FA0546052604E000F090FACF
:100D7000401B0A2811D820684068C007F6D02068B8
:100D8000016821F00201016000F082FA05460BE0E3
:100D900000F07EFA401B0A2806D9606A40F4003051
:100DA000606284F82060D2E7206840688007EFD452
:100DB000207E0128206801683DD021F0800101607B
:100DC000607E01282068016838D021F04001016070
:100DD000A07E01282068016833D021F02001016045
:100DE000E07E0128206801682ED041F010010160EA
:100DF000207F01282068016829D021F008010160C6
:100E0000607F01282068016824D021F0040101607E
:100E1000D4E902010843D4E904121143084361688C
:100E2000491E08432168C86100206062012084F8DF
:100E30002000002070BD41F08001C0E741F040017A
:100E4000C5E741F02001CAE721F01001CFE741F0EA
:100E50000801D4E741F00401D9E7000030B585B0BE
:100E6000002100910191029103910068204988427C
:100E70003CD12048C16941F00071C161C16901F0F4
:100E800000710491816941F00801816180691A4D06
:100E900000F0080004904FF480700224009069462E
:100EA0000294284600F0FEF82002CDE90004032059
:100EB00003906946284600F0F5F81048416821F48F
:100EC000C04141F0E06141F480414160002211469F
:100ED000142000F049FA142000F038FA00221146DC
:100EE000152000F041FA152000F030FA05B030BDB1
:100EF0000064004000100240000C0140000001406E
:100F00007047000000B5094987B0094B0A68521CB8
:100F10000A606A460021FFF7A1FD08B172B6FEE73C
:100F20000098FFF73BFC07B000BD00000000002068
:100F30001C000020704770477047000070B50446E1
:100F400090F82000012804D0606A40F4002060621C
:100F500018E0022084F820002068016821F00101D7
:100F6000016000F095F905460EE000BF00F090F931
:100F7000401B0A2808D9606A40F4003060620520EE
:100F800084F82000012070BD20684068C007EDD1C2
:100F9000606270BD70477047704770477047704718
:100FA000704710B590F821100022022905D00421C5
:100FB000816380F82020012010BD01680B6823F0B8
:100FC0000E030B6001680B6823F001030B6090F8BF
:100FD0004030C46B012101FA03F3636080F82110F3
:100FE00080F82020104610BD10B590F82110002484
:100FF000022903D00421816301243DE001680A68CD
:1010000022F00E020A6001680A6822F001020A60FA
:101010001A4A0168914201D1012121E0174A143294
:10102000914201D110211BE0144A2832914201D192
:10103000891515E0114A3C32914201D189140FE023
:101040000E4A5032914202D14FF4803108E00B4AEF
:101050006432914202D14FF4801101E04FF080716F
:10106000064A083A5160012180F82110002180F8D9
:101070002010416B01B18847204610BD0800024096
:1010800070B5044600F004F90546601C02D004481F
:101090000078044400F0FCF8401BA042FAD370BD75
:1010A0000C0000202DE9F84FDFF8B891002409F179
:1010B000040A0AF1040B23460F270BF1040EC9E0C2
:1010C0000125A5402A40AA427DD1674ED1F804C02F
:1010D000ACEB0608B44532D014DCBCF1030F3AD0B7
:1010E00009DCBCF1000F2AD0BCF1010F1CD0BCF10F
:1010F000020F31D11DE0BCF1110F17D0BCF1120F5E
:101100002AD119E0B8F5881F19D006DCB8F5803F60
:1011100015D0B8F5801F1FD111E0B8F5001F0ED013
:10112000B8F5041F18D10AE0CB6815E0CB681B1D89
:1011300012E0CB6808330FE0CB680C330CE08B680F
:101140002BB1012B4FF0080303D0456104E00423C9
:1011500002E0056100E00023FF2A01D8064601E015
:1011600000F104064FEA840501D9A5F12005D6F85F
:10117000008007FA05FC28EA0C0803FA05F548EA9E
:101180000508C6F800804D68ED0062D5374DAE69A0
:1011900046F00106AE61AD6924F0030605F00105D5
:1011A0000095334D06EB050CDCF80850A607360F0A
:1011B00007FA06F825EA0805DFF8B880404503D1AC
:1011C0004FF0000817E044E0DFF8AC80404502D162
:1011D0004FF001080FE0DFF8A480404502D14FF046
:1011E000020808E0DFF89880404502D14FF003087C
:1011F00001E04FF0040808FA06F848EA0508CCF8C0
:1012000008804D68D9F80060ED034D4601D51643BE
:1012100000E096432E604D68DAF80060AD03554655
:1012200001D5164300E096432E604D68DBF8006060
:10123000ED025D4601D5164300E096432E604D68F1
:10124000DEF80060AD02754601D5164300E0964316
:101250002E60641C0D682A46E5407FF431AFBDE87E
:10126000F88F00000004014000001110001002403F
:101270000000014000080140000C01400010014046
:10128000001401400AB1016170470904FBE7000046
:1012900001488068704700000C0000200248816807
:1012A00002781144816070470C000020074810B597
:1012B000016841F010010160032000F075F8002082
:1012C00000F006F800F024F8002010BD00200240D5
:1012D00070B50D4D04464FF47A712878B1FBF0F0EB
:1012E0000A490968B1FBF0F000F0ECFA48B9102C9B
:1012F00007D200222146501E00F036F800206C6014
:1013000070BD012070BD00000C00002018000020FE
:101310000C4808B5816941F001018161816901F0E2
:1013200001010091C16941F08051C161C06900F0C3
:10133000805000900448416821F0E06141F0007164
:10134000416008BD0010024000000140002809DB98
:1013500000F01F02012191404009800000F1E020CF
:10136000C0F8001170470000F0B40E4B1B680C462B
:10137000C3F30223C3F10705042D00D90425191D69
:10138000072901D2002300E0DB1E012606FA05F141
:10139000491E214099409E40761E16403143F0BCC4
:1013A00001F044B80CED00E0064900F007020868BF
:1013B0004FF6FF03184040EA0220034A104308603A
:1013C000704700000CED00E00000FA052DE9F04741
:1013D0000F46050061D0434E306800F00700B84268
:1013E00009D2306820F0070038433060306800F0E0
:1013F0000700B84251D128683B4C810712D54007FD
:1014000003D5606840F4E06060602878000703D589
:10141000606840F4605060606068A96820F0F00087
:10142000084360602878C00728D06868012810D079
:101430002168022810D0890700292EDA616821F07E
:10144000030101436160FFF723FF804641F28839C1
:101450000DE021688903EFE78901EDE7FFF718FF49
:10146000A0EB0801494502D90320BDE8F087606878
:10147000696800F00C00B0EB810FEFD1306800F02C
:101480000700B8420BD9306820F0070038433060BD
:10149000306800F00700B84201D00120E5E7287865
:1014A000400705D56068E96820F4E06008436060A3
:1014B0002878000706D56068296920F4605040EA62
:1014C000C100606000F038F86168084AC1F3031198
:1014D000515CC8400649086006480068FFF7F8FEFE
:1014E0000020C2E70020024000100240E42400086F
:1014F00018000020100000200448054900684968D1
:10150000044AC1F30221515CC84070471800002012
:1015100000100240F42400080448054900684968A6
:10152000044AC1F3C221515CC84070471800002032
:1015300000100240F424000812A185B00FC98DE804
:101540000F0014A0144A006804905168134801F079
:101550000C03042B10D0082B0ED1C1F38343C90315
:101560001DF803000AD5516804AAC1F34041515C3B
:101570000A4A5043B0FBF1F005B0704708494843B0
:10158000FAE7000002030405060708090A0B0C0D20
:101590000E0F1010010200000010024000127A002D
:1015A00000093D002DE9F84F040070D02078C04DAF
:1015B000C00749D06868C0F38100012807D0686877
:1015C000C0F38100022809D16868C00306D52868E5
:1015D000800339D560680028E7D035E06068B0F551
:1015E000803F0BD010B1B0F5A02F11D0286820F4A7
:1015F00080302860286820F4802002E0286840F4C9
:1016000080302860606890B1FFF742FE06460AE02D
:10161000286840F480202860F0E700BFFFF738FE1C
:10162000801B642873D828688003F7D50CE0FFF787
:101630002FFE064605E000BFFFF72AFE801B642848
:10164000F0D828688003F7D420789A4E80074FF0AE
:1016500001094FF0000839D5686810F00C0F07D069
:101660006868C0F38100022809D16868C00306D405
:101670002868800714D52069012808D110E0206966
:10168000B0B1C6F80090FFF703FE074605E00AE197
:10169000FFF7FEFDC01B0228C4D828688007F7D5D5
:1016A0002868616920F0F80040EAC10028600DE078
:1016B000C6F80080FFF7ECFD074604E0FFF7E8FD01
:1016C000C01B022823D828688007F7D42078000799
:1016D0002CD57948A169D9B1C0F80090FFF7D8FDA1
:1016E000074604E0FFF7D4FDC01B02280FD8686A44
:1016F0008007F7D571484FF4FA510068B0FBF1F05C
:10170000009000BF0098411E0091FAD20EE080E0E8
:10171000C0F80080FFF7BCFD074604E0FFF7B8FD06
:10172000C01B022875D8686A8007F7D42078400764
:1017300060D5E8690027C00008D4E86940F080500F
:10174000E861E869012700F0805000905C4801687A
:10175000C90513D40168834641F480710160FFF725
:1017600097FD824606E000BFFFF792FDA0EB0A005E
:1017700064284ED8DBF80000C005F5D5E0680128E4
:101780000AD008B1052813D0286A20F00100286289
:10179000286A20F0040002E0286A40F00100286274
:1017A000E06841F2883B98B1FFF772FD82460BE09A
:1017B000286A40F004002862EEE700BFFFF768FDEA
:1017C000A0EB0A0159455AD8286A8007F6D50CE0E3
:1017D000FFF75EFD824605E0FFF75AFDA0EB0A0128
:1017E00059454CD8286A8007F6D41FB1E86920F023
:1017F0008050E861E06988B36968C1F3810102291A
:1018000044D00228C6F8608004D0FFF741FD0446AA
:1018100038E034E0FFF73CFD074604E0FFF738FD11
:10182000C01B02282BD828688001F7D4206AB0F5A5
:10183000803F05D16868A16820F4003008436860E3
:10184000D4E908010843696821F474110843686009
:10185000C6F86090FFF71CFD044606E025E000BFD7
:10186000FFF716FD001B022809D828688001F7D56C
:101870001BE000BFFFF70CFD001B022802D903206C
:10188000BDE8F88F28688001F4D40EE00128F7D075
:101890006868226A00F48031914204D1616A00F4E0
:1018A0007010884201D00120EAE70020E8E700003C
:1018B0000010024000004242800442421800002012
:1018C0000070004010B5401EB0F1807F01D30120B0
:1018D00010BD4FF0E02460610F21601700F0A6FDFD
:1018E0000020A06107202061002010BD70477047D4
:1018F000F8B5026804461068D168536910F00F0FFC
:101900004FF0000554D003F0010601F490773743FF
:101910005FD0C20705D0CA0503D5226C42F0010290
:101920002264420705D5DA0703D0226C42F0020296
:101930002264820705D5DA0703D0226C42F0040244
:101940002264020707D501F02002324303D0226C43
:1019500042F008022264226C002A35D0800604D5A9
:10196000880602D5204600F001FC20684069216C01
:10197000C0F3801001F008010143204625D000F09B
:10198000DDFB2068416949061BD5416921F0400112
:101990004161A06BA8B158494163A06BFFF724FBDC
:1019A000002811D0A06B416B01B0BDE8F0400847A2
:1019B00083060ED58B060CD52046BDE8F84000F016
:1019C000D5BB2046FFF793FFF8BDFFF790FF2564D6
:1019D000F8BD266B2023012E52D1C60650D5CE0667
:1019E0004ED5106850680090506940062AD5A16B0A
:1019F000086840680004000CEAD0A68D8642E7D94A
:101A0000E0858869202818D0D06820F48070D060E4
:101A10002068416921F0010141612068416921F09C
:101A20004001416184F83E3025632068C16821F09F
:101A30001001C160A06BFFF7B4FAA08DE18D401AD0
:101A400081B219E0A08DE18D401A81B2E08D0028AD
:101A5000BED00029BCD0D06820F49070D06020683F
:101A6000426922F00102426184F83E302563206819
:101A7000C26822F01002C2602046FFF737FFF8BDAF
:101A800005062BD50D0629D594F83D002128F6D161
:101A9000A068B0F5805F01D12069B0B1206A411C17
:101AA0002162216800784860E08C401E0004000C30
:101AB000E084E4D12068C16821F08001C160206821
:101AC000C16841F04001C160F8BD206A0088C0F3E0
:101AD00008005060206A801C2062E5E74006F3D5CC
:101AE0004806F1D5D168204621F04001D16084F844
:101AF0003D3000F0F4F8F8BD2D21000870B5040069
:101B000004D094F83D00002510B106E0012070BD1E
:101B100084F83C50204600F023F8242084F83D004F
:101B20002068C16821F40051C160204600F07AFBB2
:101B30002068016921F4904101612068416921F028
:101B40002A0141612068C16841F40051C1602564E7
:101B5000202084F83D0084F83E00002070BD000085
:101B600030B585B000240094019402940394006879
:101B7000184988422CD11848816941F4804181611B
:101B8000816901F480410491816941F0040181611E
:101B90008069124D00F0040004904FF40070009032
:101BA000022001900320039069462846FFF77AFA45
:101BB0002815CDE90004694628460294FFF772FA19
:101BC000002211462520FFF7CFFB2520FFF7BEFBA3
:101BD00005B030BD0038014000100240000801404F
:101BE00090F83E30202B0ED159B152B190F83C30D4
:101BF000012B08D0012380F83C300023036300F060
:101C00006DBB0120704702207047000010B5122202
:101C100004490548FFF7E4FFBDE81040014800F023
:101C2000E9B90000AC000020680000202DE9F8436D
:101C3000044690F83D001F4616460D4620284CD11C
:101C4000C5B1BEB194F83C00012846D0012084F80B
:101C50003C004FF00008C4F84080212084F83D008B
:101C6000FFF716FBA6848146E684A068B0F5805F86
:101C700003D004E00120BDE8F883206928B12E4696
:101C80005FF0000584F83C800EE00026FAE7802132
:101C9000204600F03EFBA0B9AEB116F8010B21685A
:101CA0004860E08C401EE084E08C4B464FF0000220
:101CB00000970028EBD14FF04001204600F029FBAF
:101CC00030B10320D7E735F8020BC0F30800E6E790
:101CD000202084F83D000020CDE70220CBE77047AC
:101CE000FEE700000F4810B50D4901600921416071
:101CF00000214FF08072C0E902121212C0E90421E3
:101D0000017641768176C17601774177FFF718F841
:101D1000002803D0BDE81040FEF7AFBD10BD0000A5
:101D2000006400404000002070B586B000241C48CC
:101D30000094019402940394816941F0100181613F
:101D4000816901F010010491816941F020018161F4
:101D5000816901F020010491816941F004018161F0
:101D6000816901F004010491816941F008018161F8
:101D700080690C4E00F008004FF4005504900022DA
:101D800029463046FFF77EFA01200095CDE901048F
:101D90000220039069463046FFF784F906B070BD13
:101DA00000100240001001400C4810B50A490160C3
:101DB0004FF4E1314160002181600C22C160C0E933
:101DC00004128161C161FFF799FE002803D0BDE8CC
:101DD0001040FEF752BD10BD0038014068000020E1
:101DE000FEE7000070B51A4C1A4E4FF4005594F8F7
:101DF0000802A8B1012826D0022827D1FEF7FCFB53
:101E0000002229463046FFF73DFAB4F8AC0102B291
:101E1000B4F8D400BDE8704001B20F48FEF702BD2F
:101E20000020C4F8DC01C4F8040204F5C474FEF711
:101E3000FBFB012229463046FFF724FAA08C02B2B0
:101E400034F8B40CE6E7FEF7EFFBD9E770BD00000D
:101E5000C00000200010014040000020FEE72DE9F6
:101E6000F0410446D0F8C400D4F8B810451AC4F8BC
:101E7000C850D4F8BC00D4F8C0602844714200EBCC
:101E80004100AC34FEF7AAFAA168FEF7C5F9804616
:101E90002846FEF7A3FA6168FEF7BEF90746A81BBD
:101EA000FEF79CFA2168FEF7B7F93946FEF75CF9B0
:101EB0004146FEF759F90746206AFEF78FFA394680
:101EC000FEF752F9FEF7A4FA2062C4E90465616ADC
:101ED000AC3C884201DDC4F8CC10D4F8CC20484298
:101EE000824201DAC4F8CC00D4F8CC1000203229A8
:101EF00001D8C4F8CC00D4F8CC103231322901D842
:101F0000C4F8CC00BDE8F081704700002DE9F04135
:101F100005460C46244E486A03E000BFFEF776F9FA
:101F2000606231468842F9DCB046204E0746B04236
:101F300005D941463846FEF717F96062F6E738469C
:101F4000D5F8A410FEF762F90646E0603146206934
:101F5000FEF70AF9014620616068FEF75DF98046E8
:101F600031462068FEF758F94146FEF7FDF8FEF7C6
:101F70004FFA06466061206AE0613846D5F8A41041
:101F8000FEF744F9FEF744FA2062A1698E4200DDB3
:101F9000616162694842824201DB104600E0606193
:101FA000C5F8C400BDE8F08100003443000034C32C
:101FB00070B50188408849BA40BA09B205B20846EE
:101FC000FEF70CFA094E3146FEF758F9084CC4F8F2
:101FD000DC012846FEF702FA3146FEF74FF9C4F855
:101FE0000402022084F8080270BD00000000C8420C
:101FF000C00000201CB500210A46835C552B0ED082
:10200000521C142AF9DB42186B465278102A08D069
:10201000202A12D0302A1CD0402A0DD11DE01146B2
:10202000F1E700228C180444A4789C54521C062A20
:10203000F8DB184600F0AEF91CBD00228C180444F1
:10204000A4789C54521C062AF8DB1846FFF7B0FF10
:102050001CBD084C002284F8082200228C1804447D
:10206000A4789C54521C062AF8DB184600F0A4F908
:102070001CBD0000C00000207047FFF70FB930B54D
:102080008FB028216846FEF764F814210AA8FEF7ED
:1020900060F801210804CDE9001000240294022513
:1020A0000491CDE907504FF4E01009906846FFF71E
:1020B00079FA08B172B6FEE70F20CDE90A054FF4B0
:1020C0008060CDE90C4002210AA80E94FFF77EF94A
:1020D000002801D072B6FEE70FB030BD7047000097
:1020E0002DE9F04116460A460F4D04462946104692
:1020F000FEF792F8FEF78CF9074629463046FEF7C0
:102100008BF8FEF785F9014666202070202060706C
:10211000380AA070E770080A207161710020A07170
:10212000E071BDE8F08100000000C84210B5406ACF
:102130000021C185C184FFF7DAFB10BD0168CA68C0
:1021400022F49072CA6001684A6922F001024A6171
:10215000016B012904D10168CA6822F01002CA602B
:10216000202180F83E1000210163704708B590F8E7
:102170003E10222901D0022008BD82684FF480530E
:102180009A4201D1016921B1816A9A421BD04AB1B8
:102190000AE00268816A5268C2F308020A80816A12
:1021A000891C08E0026972B10268526802F07F027D
:1021B0000A70816A491C8162C18D491E0904090C9B
:1021C000C18503D019E002685268F1E70168CA6866
:1021D00022F02002CA600168CA6822F48072CA60D4
:1021E00001684A6922F001024A61202180F83E100C
:1021F000016B012903D0FFF709FD002008BD002174
:1022000001630168CA6822F01002CA6001680A68A6
:10221000D20602D50A6849680091818DFFF766FBF6
:10222000EBE7000070B5044600680169E26821F43C
:102230004051114301612169A06808436169084365
:102240002168CA6841F20C639A430243CA6020685D
:102250004169A26921F44071114341611E4920681E
:10226000884202D1FFF758F901E0FFF745F900EB8A
:10227000C00101EB0012606864218000B2FBF0F342
:10228000B3FBF1F36FF018067343B2FBF0F5B2FB4A
:10229000F0F605EB8305322303EB0515B5FBF1F5ED
:1022A000B6FBF1F605F0F00505EB0615B2FBF0F60E
:1022B000B2FBF0F0B0FBF1F06FF01802504306EB08
:1022C000800003EB0010B0FBF1F0216800F00F007C
:1022D0002844886070BD000000380140816282851A
:1022E000C28500210164222280F83E2080F83C1043
:1022F0000168CA6842F48072CA6001684A6942F0A3
:1023000001024A610068C16841F02001C1600020FB
:1023100070472DE9F041984617460E460446069D43
:102320001DE0681C1BD02DB1FEF7B2FFA0EB08002A
:10233000A84214D92068C16821F4D071C160206816
:10234000416921F001014161202084F83D0084F8B9
:102350003E00002084F83C000320BDE8F0812068A6
:10236000006836EA000004D00020B842D9D000202E
:10237000F3E70120F9E700000148FFF7B9BA0000D0
:10238000680000200148FEF7DDBB0000400000208F
:10239000FEE70000018849BA0AB20649C1F8CC201C
:1023A000408840BA00B2C1F8A401012081F80802B7
:1023B00070470000C0000020018849BA0AB20449F1
:1023C000C1F8D021408840BA00B2C1F8F801704786
:1023D000C000002030B5124C124800214FF07E534F
:1023E0004FF4FA6501EBC10202EB420200EBC202BC
:1023F000491CE2E92D43022955629360F2DB00217A
:10240000094C0B464FF47A7501EB810200EBC202D6
:10241000491CE2E96E43022995619360F4DB30BD0B
:1024200000007041C0000020000016430907090E9B
:10243000002804DB00F1E02080F80014704700F071
:102440000F0000F1E02080F8141D704702E008C87A
:10245000121F08C1002AFAD170477047002001E01E
:1024600001C1121F002AFBD17047000003490988EF
:1024700049BAC0F89810C0F8901070471C000020AE
:10248000FEF714FFFFF7FBFDFFF74EFCFFF78CFC98
:10249000FFF728FC12220E490E48FFF7A1FB0E4859
:1024A000FEF798F9FFF796FF0C4C0D48D4F88421FD
:1024B000D4F8AC10FFF714FE12230822084905488F
:1024C000FFF7B4FBFFF78EFC0120FEF7D9FDECE728
:1024D000AC0000206800002040000020C000002068
:1024E00004000020000000000000000001020304BE
:1024F0000607080900000000010203041C2500086B
:1025000000000020400000004C2400085C2500086A
:1025100040000020900600005C240008000000003D
:10252000000000000000000001000000100000009A
:10253000000000000024F400000000000000000083
:10254000000000000000000000000000000000008B
:0C2550000000000000000000000000007F
:04000005080000ED02
:00000001FF
